:020000040800F2
:1000000000040020B1070008910B0008910B0008C4
:10001000910B0008910B0008910B0008910B000850
:10002000910B0008910B0008910B00087106000865
:10003000910B0008910B0008910B00084107000884
:10004000910B0008910B0008910B0008910B000820
:10005000910B0008910B0008910B0008910B000810
:10006000910B0008910B0008910B00087109000822
:10007000A1090008D1090008010A0008310A000896
:10008000610A0008910A0008910B0008910B000812
:10009000910B0008910B0008910B0008910B0008D0
:1000A000910B0008910B0008910B0008910B0008C0
:1000B000910B0008910B0008910B0008910B0008B0
:1000C000910B0008910B0008910B0008910B0008A0
:1000D000910B0008910B0008910B0008910B000890
:1000E000910B0008910B0008910B0008910B000880
:0400F000910B000868
:0800F40001010008F101000800
:10010000044B0022C3F8F025C3F8F42583F84428F3
:10011000704700BFAC0C0020000000000000000091
:1001200038B5022000F024FE2548102100F0F8FD2B
:10013000234800F0DDFD044620B9224B1A6822F462
:1001400080721A601E4D284600F042FD00F090FBC0
:1001500000F05EF91C4B1D489A691D4B4FF4E131CC
:100160009A6001F005F819481A492A6800F090FFD2
:100170001CB11648184900F08BFF042001F040F92B
:10018000052001F03DF9062001F03AF9072001F0C1
:1001900037F9002001F034F90D4801F061FA20230D
:1001A00083F311880D4863210D4A002300F010FAF3
:1001B000002383F31188064801F02AFBFBE700BF08
:1001C000A00C00200038024094150020AC0C002048
:1001D000FC140020C91D0008DB1D000808150020C4
:1001E0008113000800000000000000000000000073
:1001F00070B5094D002414262146324605F10C0045
:100200002C606C60AC6001F023FB05F120002146FE
:10021000324601F01DFB70BDFC1400200000000000
:1002200038B50D46044610B90C4800F0D1FD636A9C
:1002300045EA0301237F6162082B03D1236A194237
:1002400006D138BD092B08D1236A1940994204D13F
:10025000204600F035F80023036238BD5A1B000821
:1002600038B50B4B05469C69202383F31188606ADF
:10027000284005D10820256200F042F8606A284035
:10028000636A23EA00036362002383F3118838BDA5
:100290009415002000000000000000000000000095
:1002A000034B00225B601B609A605B611B617047BF
:1002B0009415002000000000000000000000000075
:1002C00010B5037F04460BB10E2B02D1084800F095
:1002D0007FFD00232377A168064B1B689A688A423A
:1002E000FBD25A682360626020465C60146010BDD7
:1002F000E01B000894150020000000000000000032
:10030000064B14229969087718688A770268536047
:100310001A6098610123037700F022BA9415002037
:1003200038B50C4D0162AB6981689A680446914208
:1003300003D8BDE83840FFF7C3BF1846FFF7C0FF3A
:1003400001230146AC6123772046BDE8384000F028
:1003500007BA00BF94150020000000000000000054
:1003600038B50A4C2368A5691A682846546022608B
:100370000122A3611A771423AB77FFF7A1FFA069CD
:100380002946BDE8384000F0EBB900BF94150020C5
:100390000C4B10B51868996902688C6853601A6034
:1003A00001220277002298610A771B689A68A242AC
:1003B000FBD85A680B604A60BDE810405960116074
:1003C00000F0CEB9941500200000000000000000ED
:1003D000034B9B699B7F0BB9FFF7C2BFFFF7D8BFE9
:1003E0009415002000000000000000000000000044
:1003F000024B034A9B699A61FEE700BF94150020F7
:10040000001C0008000000000000000000000000C8
:1004100007B500F03DF9FFF743FF00F0C9F84021B0
:100420000C4800F04DF80C4B986101230377002332
:1004300083F3118862B6084B084A9B69A0219A6130
:10044000002300930122064B064800F079F803B020
:100450005DF804FB380C002094150020C01B000838
:10046000F1030008B01500200000000000000000AB
:1004700038B5114B9B699A7F0AB1013A9A770F4BB5
:10048000DA681C460132DA601A689A4213D0916821
:100490000139916022680949936863B91068D56889
:1004A0000860D360416083F311881069A847202356
:1004B00083F31188EEE738BD941500205016002014
:1004C000022202770022427742628261044A8160FE
:1004D000142181775169026141615061086170475F
:1004E0009415002000000000000000000000000043
:1004F0002DE9F041DDF818800D4616461F460446EA
:1005000020B18F2902D97F2A00D813B9084800F0FA
:100510005FFC243D074B6019E06031466751C0F82D
:10052000048003622046BDE8F041FFF7C9BF00BF69
:10053000101C000871070008000000000000000007
:1005400037B51D46202383F31188069C2B46009463
:10055000FFF7CEFF00210446FFF7E2FE002383F3FE
:100560001188204603B030BD0000000000000000EC
:1005700008B5094B9B695A7F1862920704D15A69E2
:10058000196911611B695A610E20FFF7B9FEBDE8B8
:100590000840024800F01CBC94150020571C0008BD
:1005A000202383F31188FFF7E3BF00000000000061
:1005B000044B4FF0FF329A6000225B601B60DA60F0
:1005C000704700BF5016002000000000000000002F
:1005D000F8B50D4616461F46044608B102B111B9DA
:1005E0000C4800F0F5FB0C4A27611368E6601146E1
:1005F0009A68AA4202D2AD1A1B68F9E75A688B4280
:10060000236062605C601460A56002D09A68551B2C
:100610009D60F8BD701C000850160020000000000E
:1006200010B5044610B90B4800F0D2FBE36813B9CB
:10063000094800F0CDFB2368084A934203D099682B
:10064000A2680A449A606268136023685A600023B3
:10065000E36010BD7D1C00088C1C000850160020B3
:10066000FFF7B6FE00DF0000000000000000000001
:10067000EFF30983203383F30988002383F3118880
:1006800070470000000000000000000000000000B3
:1006900008B50A4B00229A60094A0720DA60102147
:1006A00000F04EF90A204FF4007100F049F9BDE85E
:1006B00008400B20802100F043B900BF00ED00E0AE
:1006C0000003FA0500000000000000000000000028
:1006D000202383F31188144B5B6813F4006320D04C
:1006E000EFF30983A3F1200282F309884FF08072AF
:1006F00043F8042C0D4A91691268887F92688968D2
:1007000020B18A4294BF0022012203E08A4234BF12
:10071000002201220AB1064A00E0064A43F8082CEA
:10072000704783F31188704700ED00E094150020B6
:1007300061060008640600080000000000000000D8
:1007400008B5202383F31188FFF792FE002383F37B
:100750001188BDE80840FFF7BBBF000000000000A3
:100760002DE9F04FC1F80CD0D0F80CD0BDE8F08FD7
:10077000002383F311882846A047FFF711FF704735
:1007800070470000000000000000000000000000B2
:1007900070470000000000000000000000000000A2
:1007A000FEE7000000000000000000000000000064
:1007B00072B6224B83F30988022383F31488BFF3B4
:1007C0006F8F1F4B1D4A1F498B4204D24FF055318A
:1007D00043F8041BF7E71C4B934204D24FF055310A
:1007E00043F8041BF8E7FFF7CBFF0023174A18492B
:1007F0009818884204D21749595899500433F5E79C
:10080000154B164A934203D2002243F8042BF8E713
:10081000FFF7BEFF124C134B9C4203D254F8043B2B
:100820009847F8E7FFF77CFC0F4C104B9C4203D233
:1008300054F8043B9847F8E7FFF7B2FF00080020A0
:100840000000002000040020000400200008002018
:10085000340C0020081F0008380C0020601600200F
:10086000F4000008FC000008FC000008FC00000880
:1008700000F006B8000000000000000000000000CA
:10088000154B1A6962F400421A6100221A619969D3
:1008900061F0805199619A6159694FF0FF31596156
:1008A0005A61196A41F001011962D96A41F00101E6
:1008B000D9620A4908684FF47A71B0FBF1F008492F
:1008C000013848608A6007220A605A6A42F0805202
:1008D0005A6200F0F5B800BF00380240A00C0020BA
:1008E00010E000E000000000000000000000000038
:1008F00000F0030230B5D200FF249440914020F074
:10090000030303F1604303F56143D3F8005301226D
:1009100025EA04040C43C3F8004300F01F0302FA65
:1009200003F34009800000F1604000F56140C0F829
:100930008031036030BD00000000000000000000B6
:1009400020F0030300F00300C000FF22824081403A
:1009500003F1604310B503F56D439C6924EA02027C
:100960000A439A6110BD0000000000000000000072
:1009700008B5074B0F2219685A60064A01F00F01AB
:1009800013680BB150689847BDE80840FFF7A0BE58
:1009900000600240600C0020000000000000000029
:1009A00008B5074BF02219685A60064AC1F30311D3
:1009B00093680BB1D0689847BDE80840FFF788BE40
:1009C00000600240600C00200000000000000000F9
:1009D00008B5084B4FF4706219685A60064AC1F3B3
:1009E000032113690BB150699847BDE80840FFF730
:1009F0006FBE00BF00600240600C002000000000DD
:100A000008B5084B4FF4704219685A60064AC1F3A2
:100A1000033193690BB1D0699847BDE80840FFF7EF
:100A200057BE00BF00600240600C002000000000C4
:100A300008B5084B4FF4702219685A60064AC1F392
:100A40000341136A0BB1506A9847BDE80840FFF7AD
:100A50003FBE00BF00600240600C002000000000AC
:100A600008B5084B4FF4700219685A60064AC1F382
:100A70000351936A0BB1D06A9847BDE80840FFF76D
:100A800027BE00BF00600240600C00200000000094
:100A900008B5084B4FF0706219685A60064AC1F3F6
:100AA0000361136B0BB1506B9847BDE80840FFF72B
:100AB0000FBE00BF00600240600C0020000000007C
:100AC000094A002313600C215943084A895800221F
:100AD0000A60074941F833200133072BF3D1054B56
:100AE0004FF0FF325A607047980C0020F01C00084D
:100AF000600C0020006002400000000000000000C8
:100B00002DE9F0410F4615469846044610B91A489B
:100B100000F05EF9627A012000FA02FC174E31689B
:100B20001CEA010F26D116484CEA010340F8325066
:100B3000336000EBC2025B06C2F8048004D0114BA4
:100B4000DA6942F08072DA6123680F201A680026A1
:100B500022F00F021A60217A626800FA01F1116036
:100B60001E6035B1A07A3901FFF7C2FE3046BDE8FC
:100B7000F0812846BDE8F081A01C0008980C0020F8
:100B8000600C00200038024000000000000000005F
:100B9000FEE7000000000000000000000000000070
:100BA000084B1A6842F001021A604FF4A063054A2C
:100BB0001268920703D4013BF9D10120704700204D
:100BC000704700BF00380240000000000000000035
:100BD000F0B593B00021202205460AA800F038FEA7
:100BE0004FF480330A934FF400330B934FF4802378
:100BF0000C93344B344A0D93344B51680E93344B61
:100C000010680F93334B06AE109303AB03C3117AF6
:100C1000197002F1090319321746186859683446E9
:100C200003C4083393422646F7D13868796801AB8C
:100C300003C3294B9A68C2F38102022A24D0032AF3
:100C40000CD0012A01D1254B1FE05B6812A8C3F329
:100C5000423300EB830353F8203C16E09A6812A954
:100C6000C2F383420A4412F83C1C9A689B681C48F1
:100C700013F4803F194BC2F3815218BF03464B4314
:100C80000132B3FBF2F300E0154B134A12A891684E
:100C9000C1F30311014411F8301CCB402B60916863
:100CA000C1F30221014411F8441C23FA01F16960E7
:100CB0009268C2F3C222024412F8442CD340AB60C3
:100CC00013B0F0BD9CFF0700001B0008C0FD0F0023
:100CD00068FF1F00D0FE3F00003802400024F400EF
:100CE00000127A0000000000000000000000000078
:100CF00008B5FFF755FF60B9074B9A6822F0030269
:100D000042F001029A609A6802F00C02042AFAD1B9
:100D100008BD012008BD00BF0038024000000000EF
:100D20000F4B1A6842F004021A601A6842F002027D
:100D30001A600C4A1278032A01D1022906E0022A1D
:100D400001D1082902E0012A05D1102903D91A6826
:100D500042F0010202E01A6822F001021A607047B4
:100D6000003C02409C0C002000000000000000003D
:100D7000094B4FF080525A62084B5A68D106FBD497
:100D80001A6822F4C05242EAC0221A605A68D20697
:100D9000FCD4034B187070470038024000700040CC
:100DA0009C0C00200000000000000000000000007B
:100DB000013810F8013F2BB1034A11880906FBD511
:100DC0009380F6E7704700BF003801400000000044
:100DD00008B5FFF7EDFF0648FFF7EAFF054B9B69F3
:100DE0009869FFF7E5FFBDE808400348FFF7E0BF5B
:100DF000501D0008941500207D1D00080000000013
:100E0000F0B5644685B00025B0FBF1F301FB130299
:100E1000092A05F1010594BF3032373201AED2B252
:100E20007719184607F8012C002BEDD12F462368BF
:100E30009D420ED2227CE3680AB1302000E02020DF
:100E40009847A368626801339342A3600FD20135CB
:100E5000EDE7A3686568ED1AAF4238BF3D462B4405
:100E6000A36025B1013DE368705D9847F9E705B0DF
:100E7000F0BD0000000000000000000000000000C5
:100E80002DE9F0431C4687B00023049002910393A0
:100E900001938DF814301078561C50B125280CD0D1
:100EA000049B9847039B029A013393420393C0F03B
:100EB0009580039807B0BDE8F083002201921146A7
:100EC00016F8013BA3F13000C5B2092D07D812B9BD
:100ED000302B08BF01210A2303FB0202F0E7019235
:100EE00003F0DF02532A8DF8141010D1251D246859
:100EF00014F8013B002B6BD0039B5A1C0392029AFF
:100F0000934265D214F8010C049B9847F0E7632BD9
:100F10000BD1049B20789847039B029A013393429C
:100F200004F10405039353D3C3E7582B05D1251DC2
:100F30000DF1040C2068102106E0752B07D1206804
:100F4000251D0DF1040C0A21FFF75AFF40E0642B28
:100F500011D1251D2468002C09DA049B2D20984707
:100F6000039B029A013393420393A2D264420DF190
:100F7000040C2046E7E7412B29D101238DF81430DA
:100F80000223D4F80090D4F8048004F10C05A7687B
:100F90000193002444451BDA002C0CDC0DF1040CF9
:100FA00019F804001021FFF72BFF029B039A9A42C5
:100FB0000ED20134EEE7002FF0D0049BF8B2984730
:100FC000039B029A013393420393E7D300E0254643
:100FD000029B039A9A42BFF46CAF2C4632465AE702
:100FE000D0F8E0355A1CC0F8E0251970D0F8E0358B
:100FF00000F2DC52934228BFC0F8E00570470000C1
:1010000001460148FFF7ECBFAC0C002000000000D7
:10101000D0F8DC1500F2DC52D0F8E835521A9A42CA
:1010200028BF1A46C0F8EC2562B1002380F8E435E9
:10103000054B5B6AD9605A6092221A601A6842F0C6
:1010400001021A60704700BFF01C00080000000099
:1010500058B50E46D0F8E8150446C1F5BB611346F5
:10106000094804313246FFF70BFFD4F8E83518443D
:1010700094F8E435C4F8E80523B12046BDE85840AB
:10108000FFF7C6BF58BD00BF0110000800000000F8
:101090000EB403B503AA52F8041B202383F311886E
:1010A0000192FFF7D5FF002383F3118802B05DF8AA
:1010B00004EB03B0704700000000000000000000D7
:1010C00038B5294B04461B6BD0F8F0055B68C3F1BB
:1010D0004803834201D1002038BD181A48BF483068
:1010E000C4F8F03500218142F5DAD4F8F425531C18
:1010F000472BC4F8F4352244C8BF002392F8F825E2
:10110000C8BFC4F8F43594F8443823B1002384F8F8
:101110004438C4F84038082AD4F8403804D103B31E
:10112000013BC4F840381CE00D2A01D00A2A0FD137
:10113000BBB12344002283F8402604F5C8600B4964
:1011400000F0FEFBC4F84808012084F8440838BDCC
:10115000B3F5FF7F05D85D1C2344C4F8405883F8DD
:1011600040260131BFE700BFF01C0008601D0008E9
:101170002DE9F84F544F4FF000080646C6F8E00539
:10118000C6F8DC050123C0F8E88580F8E435FB6982
:101190004E4C43F00103FB6123684D4D23F4402383
:1011A00023602368DFF834B143F400232360A08870
:1011B000484A20F400700004000CA080A388D9469F
:1011C0009BB2A380E368584623F44023E360E368BE
:1011D000DFF80CA1E360A36806F5BF6623F44023A3
:1011E000A360A36843F40023A360636A23F0F003C1
:1011F0006362636A43F0700363623B6A43F4804353
:101200003B624FF40053AB81334B9B68B3FBF1F16E
:101210008BB22B8107214346A5F81080FFF770FCA5
:1012200059F824399222C3F808A01A600C23AB8124
:10123000C023AB82FB69424643F00103FB61236894
:101240000BF10C0023F440132360236843F40013D4
:101250002360A18821F480610904090CA180A3887E
:101260000F219BB243F48063A380E36823F440130F
:10127000E360E36843F48013E360A36823F440135E
:10128000A360A36843F40013A360636A23F470634C
:101290006362636A43F4E06363624346FFF730FCD2
:1012A000D9F830304822C3F808A0DE605A60A02286
:1012B0001A601A6842F001021A60AB899BB243F4CB
:1012C0000053AB81BDE8F88F0038024000000240B7
:1012D0000038014061130008A00C0020141D000814
:1012E0000438014000000000000000000000000081
:1012F000194A10B5536A0F24196821F00F011960BB
:10130000916A92F82C2004FA02F20A60D0F8DC45C7
:10131000D0F8EC15D0F8E825521A214400F2DC543C
:10132000A14228BF0146C0F8E825C0F8DC151AB96B
:10133000012380F8E43510BDD960611A914238BFAD
:101340000A46C0F8EC255A6092221A601A6842F0E8
:1013500001021A6010BD00BFF01C00080000000070
:101360000148FFF7C5BF00BFAC0C00200000000023
:10137000014B01225A837047000402400000000024
:1013800010B5202383F31188074C4021A068FEF795
:1013900047FF04F10C006321044A0023FFF718F90A
:1013A000002383F3118810BDFC1400208113000872
:1013B00010B506490446002000F0C2FA206000780B
:1013C000D0F1010038BF002010BD00BF601D000833
:1013D00013B503780C465BB101A9002200F080FB35
:1013E000019B20601B78002B14BF0B20002000E025
:1013F0000A2002B010BD0000000000000000000044
:1014000070B54500EDB20321A940134BDA6942F0F3
:101410000202DA61A3F550531C68CA4314401C60F1
:10142000012404FA05F504FA00F01E6835431D6036
:101430009D88ADB225EA00009880988880B2988097
:10144000D8681040D860D868D860986802409A6020
:101450009A681143996070BD003802400000000096
:101460000A460149FFF714BE701D00080000000085
:1014700038B50F4B01221A830D46202383F31188C0
:10148000C36A00F1200413B12046FFF7C9F84FF4F6
:101490007A735D43A5F57A75B5FBF3F1204601310A
:1014A000044A0023FFF794F8002383F3118838BD22
:1014B000000402407113000800000000000000005A
:1014C00030B50C4687B03621FFF7D2FF5A485B494A
:1014D000D4F84828FFF7DCFDD4F848585849284686
:1014E00000F006FA014608B92046A0E02846554912
:1014F00000F0FEF900284BD104F64C052846FFF712
:1015000057FF002874D1D4F84C0802A9FFF760FFF8
:1015100000286DD12846FFF74BFF002868D1D4F88A
:101520004C0803A9FFF754FF002861D12846FFF7B4
:101530003FFF00285CD1D4F84C0804A9FFF748FF0E
:10154000002855D12846FFF733FF002850D1D4F8A2
:101550004C0805A9FFF73CFF002849D102993A4BF6
:10156000102209B95A8300E01A830399202209B98D
:101570005A8300E01A830499402209B95A8300E093
:101580001A830599802209B95A8348E01A8346E0F4
:1015900028462E4900F0ACF9F8B92B490B8A13F014
:1015A000100F0B8A088A0CBF30223122098A13F0EF
:1015B000200F0CBF3023312310F0400F0CBF302020
:1015C000312011F0800F0CBF302131218DE8030054
:1015D00020461F49FFF75CFD2BE028461D4900F01F
:1015E00087F9F8B904F64C052846FFF7E1FE10B17B
:1015F000204607211BE00290D4F84C0802A9FFF70F
:10160000E7FE0028F4D19DF80820134B198809063D
:10161000FBD59A802846FFF7CBFE0028ECD0204669
:10162000002104E02B78232B03D120460921FFF76A
:1016300017FF07B030BD00BFAC0C00207A1D0008BA
:101640007F1D0008851D0008000402408F1D000852
:10165000991D0008AE1D0008004800400000000071
:10166000464A70B5D369464C43F00203D361454BFB
:10167000454D1968064621F440111960196828463D
:1016800041F4001119609988343621F4806109040D
:10169000090C9980998889B29980D96821F4401100
:1016A000D960D968D960996821F440119960996826
:1016B00041F400119960596A21F470615962596AC4
:1016C00041F4E0615962D16941F00201D1611968C8
:1016D00021F440011960196841F4000119609988EA
:1016E00021F400610904090C9980998889B241F4B8
:1016F00000619980D96821F44001D960D96841F42A
:101700008001D960996821F440019960996841F499
:1017100000019960596A21F470415962596A41F493
:10172000E0415962536A0F2143F4802353624FF41E
:101730000053A3810C23A381144B5A684FF4E13367
:10174000B2FBF3F39BB22381002240232282A382C7
:101750001346FFF7D5F92B680D4A9A606322DE60C5
:101760005A60A0221A601A6842F001021A60A38926
:101770009BB243F40053A38170BD00BF0038024008
:101780000048004000040240081D0008A00C002092
:1017900004480040000000000000000000000000BD
:1017A000164B70B59B6905685B680446C3F163031B
:1017B000AB4222D05D1B48BF633503601DB11048AA
:1017C0001049FFF765FC0026AE4210DA62680C484B
:1017D000531C622B63602244C8BF002392F834205C
:1017E0000949C8BF6360FFF753FC0136ECE70448C2
:1017F0000649BDE87040FFF74BBC70BDF01C000807
:10180000AC0C0020B81D0008C51D0008AB1D000869
:1018100010B504464FF0FF30FEF722FD430600D41A
:1018200010BD0748FFF74CFC0128204603D10449AE
:10183000FFF746FEF5E7BDE81040FFF7B1BF00BF78
:10184000AC0C0020000000000000000000000000C0
:10185000F0B4840743D0541E002A3ED0CDB20346D4
:1018600003E0621E002C38D0144603F8015B9A078F
:10187000F7D1032C2AD9CDB245EA05250F2C45EA2C
:10188000054515D9A4F110073F0903F1100606EB31
:1018900007161A46156055609560D5601032B24241
:1018A000F8D104F00F040137032C03EB07130DD913
:1018B0001E462246043A032A46F8045BFAD8221F41
:1018C00022F003020432134404F003042CB1C9B221
:1018D0001C4403F8011BA342FBD1F0BC7047144623
:1018E0000346C6E700000000000000000000000002
:1018F0000F4B30B405461C6802E0D01A16D1ABB1CC
:1019000015F8013BE21850781A4600F00300012850
:1019100008BF03F1200211F8013BE018407800F005
:1019200003000128E9D12033D01AE9D030BC704738
:10193000000800200000000000000000000000007F
:10194000024A012312685C3200F002B8300C002019
:10195000F0B420B3074617F8016B0D4601E0A6422C
:1019600016D015F8014B002CF9D1EEB13E4616F811
:10197000015B0C4600E073B114F8013BAB42FAD1B5
:101980005DB100233B70166006463046F0BC7047E0
:1019900063B13846DEE73746E8E72E46F3E71068DE
:1019A0000028D7D10646F0E71660EEE71760064636
:1019B0000370EAE7000000000000000000000000E3
:1019C0002DE9F00F424C82B0D4F800C001900E46D1
:1019D00000E02646344614F8015B0CEB0500407825
:1019E00000F0080000F0FF0A0028F2D12D2D5BD096
:1019F0002B2D04BF7578B41C33F010003CD09946F1
:101A0000BAF1000F0CBF6FF0004B4FF0004BBBFB67
:101A1000F9F8002709FB18BB38460CE0303DAB4213
:101A200019DD7E1C05D0404523D820D009FB00508D
:101A3000012714F8015B0CEB0506767816F0040F0D
:101A4000ECD116F0030606D0012E14BF5726372618
:101A5000AD1BAB42E5DC7B1C15D0BAF1000F21D1E8
:101A60000AB1EFB9116002B0BDE8F00F70475D45F3
:101A7000DCDD4FF0FF37DCE7302D1AD0002BBED174
:101A80000A239946BCE70199BAF1000F4FF02203EF
:101A90000CBF6FF000404FF000400B60002AE2D016
:101AA000611EDFE74042DBE7B41C75784FF0010AA6
:101AB000A2E7207800F0DF00582803D0002B9ED149
:101AC00008239CE7102365789946023498E700BF05
:101AD00000080020000000000000000000000000DE
:101AE00030B4044C0D46134601462A46206830BCEB
:101AF000FFF766BF300C002000000000000000006F
:101B0000030406080C10182030000000000000003C
:101B10000001020304060708090000000001020397
:101B200004000000000000000000000000000000B1
:101B300022636845767452656769737465724D6196
:101B4000736B22282900226368457674556E72658E
:101B50006769737465722228290022636845767468
:101B60005369676E616C49222829002263684576B3
:101B70007442726F6164636173744D61736B492267
:101B80002829002263684576745369676E616C2268
:101B90002829002263684576744469737061746310
:101BA00068222829006368457674446973706174FB
:101BB000636828292C202331000000000000000069
:101BC0006D61696E00168011040428080C10141849
:101BD000001C1D001E0000000000000000000000AE
:101BE000636853636852656164794928292C20230E
:101BF00031000000000000000000000000000000B4
:101C000069646C6500000000000000000000000036
:101C100022636854686443726561746549222829A7
:101C2000002263685468645365745072696F726906
:101C30007479222829006368546864526573756D4D
:101C40006528292C20233100226368546864536C72
:101C50006565702228290063685468644578697452
:101C60005328292C20233100000000000000000030
:101C700022636856545365744922282900226368F8
:101C80005654526573657449222829006368565476
:101C900052657365744928292C2023310000000007
:101CA00022646D6153747265616D416C6C6F636128
:101CB00074652228290022646D6153747265616D18
:101CC00052656C6561736522282900646D615374E7
:101CD0007265616D52656C6561736528292C2023DE
:101CE00031000000000000000000000000000000C3
:101CF000086002400460024000000B001C600240CB
:101D00000460024004010C003060024004600240A4
:101D100008020D0044600240046002400C030E0003
:101D2000586002400460024010040F006C600240E2
:101D3000046002401405100080600240046002400C
:101D40001806110000000000000000000000000064
:101D50002040000000000000000000000000000023
:101D6000202C000000000000000000000000000027
:101D70002341636B2025640D0A000D25530D0023BC
:101D800050696E6700235365744C696E6573002358
:101D90004765744C696E657300234C696E657320EA
:101DA00025632025632025632025630D0A00235326
:101DB000656E64546F496D00235265706C7946728C
:101DC0006F6D496D00202558000D426D7374754389
:101DD00074726C204148423D2575000D436C6B20A8
:101DE000737769746368206661696C757265000059
:101DF00000202020202020202020282828282820DB
:101E000020202020202020202020202020202020D2
:101E1000208810101010101010101010101010103A
:101E2000100404040404040404040410101010102A
:101E300010104141414141410101010101010101F4
:101E40000101010101010101010101011010101046
:101E500010104242424242420202020202020202C6
:101E6000020202020202020202020202101010101A
:101E70002000000000000000000000000000000042
:101E80000000000000000000000000000000000052
:101E90000000000000000000000000000000000042
:101EA0000000000000000000000000000000000032
:101EB0000000000000000000000000000000000022
:101EC0000000000000000000000000000000000012
:101ED0000000000000000000000000000000000002
:101EE00000000000000000000000000000000000F2
:101EF00000000000000000000000000000000000E2
:041F0000430000009A
:101F0800F01D00080000000000000000F40A002096
:101F18005C0B0020C40B0020000000000000000043
:101F280000000000000000000000000000000000A9
:101F3800000000000000000000000000001F000872
:101F48000000000000000000000000000000000089
:101F58000000000000000000000000000000000079
:101F68000000000000000000000000000000000069
:101F78000000000000000000000000000000000059
:101F88000000000000000000000000000000000049
:101F98000000000000000000000000000000000039
:101FA8000000000000000000000000000000000029
:101FB80001000000000000000E33CDAB34126DE6C6
:101FC800ECDE05000B00000000000000000000002F
:101FD80000000000000000000000000000000000F9
:101FE80000000000000000000000000000000000E9
:101FF80000000000000000000000000000000000D9
:1020080000000000000000000000000000000000C8
:042338000808002071
:04000005080007B137
:00000001FF
